:100000000C942A000C943F000C943F000C943F0089
:100010000C943F000C943F000C943F000C943F0064
:100020000C943F000C943F000C943F000C943F0054
:100030000C943F000C943F000C943F000C943F0044
:100040000C943F000C943F000C943F000C943F0034
:100050000C943F0011241FBECFE5D8E0DEBFCDBF1A
:1000600010E0A0E6B0E0E6EBFBE002C005900D92E8
:10007000A639B107D9F70E9441000C94D9050C9418
:1000800000000E944E0080E895E20E947D020E94DE
:1000900061000E9481010E94FB00FDCF41E064E00D
:1000A00083E00E94910141E065E083E00E949101BC
:1000B00082EA8FBD8AE18EBD8FEF90E098BD87BD4B
:1000C000089541E060E083E00E94910141E061E039
:1000D00083E00E94910141E062E083E00E9491018F
:1000E00041E063E083E00E94910108958FEB90E08E
:1000F0009CBD8BBD9ABD89BD41E060E083E00E945C
:10010000070241E062E083E00E94070240E061E014
:1001100083E00E94070240E063E083E00E94070260
:1001200008958FEB90E09CBD8BBD9ABD89BD41E0E9
:1001300061E083E00E94070241E063E083E00E9407
:10014000070240E060E083E00E94070240E062E0D6
:1001500083E00E94070208958FEB90E09CBD8BBD69
:100160001ABC19BC41E060E083E00E94070240E055
:1001700061E083E00E94070240E062E083E00E94C9
:10018000070240E063E083E00E94070208951CBC80
:100190001BBC8FEB90E09ABD89BD41E062E083E03B
:1001A0000E94070240E063E083E00E94070240E013
:1001B00060E083E00E94070240E061E083E00E948B
:1001C000070208951CBC1BBC1ABC19BC40E060E0CF
:1001D00083E00E94070240E061E083E00E940702A2
:1001E00040E062E083E00E94070240E063E083E0D9
:1001F0000E9407020895EF92FF920F931F93CF93EF
:10020000DF93CDB7DEB764970FB6F894DEBF0FBEAD
:10021000CDBF80E00E9486017C0181E00E948601C2
:100220008C011F938F93FF92EF9280E690E09F9353
:100230008F93CE0101969F938F930E94EF020FB68A
:10024000F894DEBF0FBECDBF093592E0190758F014
:100250000E94910082E490E00E949902CE010196F2
:100260000E948F0238C00039114058F40E94760075
:1002700086E490E00E949902CE0101960E948F02CE
:100280002AC080E9E81681E0F80658F40E94C70009
:100290008CE490E00E949902CE0101960E948F02A8
:1002A0001AC099E5E91692E0F90658F00E94AC00F0
:1002B00082E590E00E949902CE0101960E948F0291
:1002C0000AC00E94E20083E590E00E949902CE01FC
:1002D00001960E948F022FE58AEE90E02150804027
:1002E0009040E1F700C0000064960FB6F894DEBFBE
:1002F0000FBECDBFDF91CF911F910F91FF90EF9077
:10030000089580E487B986E886B908958F7080647F
:1003100087B986B1806486B93699FECF84B195B12C
:1003200008954130B9F58230A1F018F4813031F0F0
:1003300008958330C9F0843011F1089581E090E090
:1003400002C0880F991F6A95E2F79AB3892B8ABB7E
:10035000089581E090E002C0880F991F6A95E2F746
:1003600097B3892B87BB089581E090E002C0880F86
:10037000991F6A95E2F794B3892B84BB089581E0B5
:1003800090E002C0880F991F6A95E2F791B3892B1C
:1003900081BB089541113AC08230A9F018F4813030
:1003A00031F008958330D9F0843029F1089581E047
:1003B00090E002C0880F991F6A95E2F780959AB382
:1003C00089238ABB089581E090E002C0880F991FBD
:1003D0006A95E2F7809597B3892387BB089581E0FA
:1003E00090E002C0880F991F6A95E2F7809594B358
:1003F000892384BB089581E090E002C0880F991F93
:100400006A95E2F7809591B3892381BB08954130C5
:10041000B9F58230A1F018F4813031F008958330BD
:10042000C9F0843011F1089581E090E002C0880F96
:10043000991F6A95E2F79BB3892B8BBB089581E0E6
:1004400090E002C0880F991F6A95E2F798B3892B54
:1004500088BB089581E090E002C0880F991F6A95DB
:10046000E2F795B3892B85BB089581E090E002C047
:10047000880F991F6A95E2F792B3892B82BB089582
:1004800041113AC08230A9F018F4813031F008955A
:100490008330D9F0843029F1089581E090E002C0E2
:1004A000880F991F6A95E2F780959BB389238BBBD0
:1004B000089581E090E002C0880F991F6A95E2F7E5
:1004C000809598B3892388BB089581E090E002C0AD
:1004D000880F991F6A95E2F7809595B3892385BBAC
:1004E000089581E090E002C0880F991F6A95E2F7B5
:1004F000809592B3892382BB08959C0140E050E02F
:1005000060E271EA87E090E00E94CD02215031095B
:1005100030BD29B988E18AB986E880BD0895FC011B
:1005200004C05D9BFECF31968CB980818111F9CFDB
:1005300008950F931F93CF93DF93CDB7DEB7EC975A
:100540000FB6F894DEBF0FBECDBF49B55AB52BB577
:100550003CB55F934F933F932F931F928F9387E701
:1005600090E09F938F938E010F5F1F4F1F930F9308
:100570000E94EF02C8010E948F020FB6F894DEBFFE
:100580000FBECDBFEC960FB6F894DEBF0FBECDBF49
:10059000DF91CF911F910F910895A1E21A2EAA1B0E
:1005A000BB1BFD010DC0AA1FBB1FEE1FFF1FA21723
:1005B000B307E407F50720F0A21BB30BE40BF50B20
:1005C000661F771F881F991F1A9469F760957095A9
:1005D000809590959B01AC01BD01CF010895AEE0DF
:1005E000B0E0E5EFF2E00C94B0050D891E8986E0DD
:1005F0008C831A8309838FEF9FE79E838D83AE01DF
:10060000475E5F4F6F89788DCE0101960E9411037E
:10061000EF81F885E00FF11F10822E96E4E00C9434
:10062000CC05ABE0B0E0E7E1F3E00C94A2056C018F
:100630007B018A01FC0117821682838181FFCCC174
:10064000CE0101963C01F6019381F70193FD85915E
:1006500093FF81917F01882309F4BAC1853239F46F
:1006600093FD859193FF81917F01853229F4B60135
:1006700090E00E940805E7CF912C212C312CFFE15E
:10068000F315D8F08B3279F038F4803279F0833278
:10069000A1F4232D20611DC08D3261F0803369F4F7
:1006A000232D216016C0832D8260382EE32DE46057
:1006B0003E2E2AC0F32DF8601DC037FC2DC020ED62
:1006C000280F2A3040F08E32B9F436FC81C1232D38
:1006D0002064322E19C036FE06C08AE0989E200D96
:1006E0001124922E11C0EAE02E9E200D1124222EFC
:1006F000F32DF0623F2E08C08C3621F4832D8068E4
:10070000382E02C0883641F4F70193FD859193FF9E
:1007100081917F018111B3CF982F9F7D95549330A4
:1007200028F40C5F1F4F9FE399830DC0833631F08F
:10073000833771F0833509F059C021C0F8018081F9
:1007400089830E5F1F4F88248394912C530113C01B
:100750002801F2E04F0E511CF801A080B18036FE56
:1007600003C0692D70E002C06FEF7FEFC5010E94EA
:10077000FD044C018201F32DFF773F2E16C02801A6
:1007800022E0420E511CF801A080B18036FE03C069
:10079000692D70E002C06FEF7FEFC5010E94F20487
:1007A0004C01F32DF0683F2E820133FC1BC0822DDB
:1007B00090E088169906B0F4B60180E290E00E94BD
:1007C00008052A94F4CFF50137FC859137FE819115
:1007D0005F01B60190E00E94080521102A9421E0F3
:1007E000821A91088114910471F7E8C0843611F0DF
:1007F000893641F5F80137FE07C060817181828139
:1008000093810C5F1F4F08C060817181072E000C1F
:10081000880B990B0E5F1F4FF32DFF763F2E97FF2E
:1008200009C090958095709561957F4F8F4F9F4F30
:10083000F0683F2E2AE030E0A3010E944405882E94
:10084000861845C0853731F4232D2F7EB22E2AE03D
:1008500030E025C0932D997FB92E8F36C1F018F462
:10086000883579F0B5C0803719F0883721F0B0C0ED
:10087000E92FE061BE2EB4FE0DC0FB2DF460BF2E4B
:1008800009C034FE0AC0292F2660B22E06C028E017
:1008900030E005C020E130E002C020E132E0F801A4
:1008A000B7FE07C060817181828193810C5F1F4F09
:1008B00006C06081718180E090E00E5F1F4FA30150
:1008C0000E944405882E8618FB2DFF773F2E36FEAA
:1008D0000DC0232D2E7FA22E891458F434FE0BC098
:1008E00032FC09C0832D8E7EA82E05C0B82CA32C07
:1008F00003C0B82C01C0B92CA4FE0FC0FE01E80D46
:10090000F11D8081803321F49A2D997EA92E09C092
:10091000A2FE06C0B394B39404C08A2D867809F071
:10092000B394A3FC11C0A0FE06C0B21488F4280C36
:10093000922C9B180EC0B21460F4B60180E290E0D5
:100940000E940805B394F7CFB21418F42B1802C014
:10095000982C212CA4FE10C0B60180E390E00E94E8
:100960000805A2FE17C0A1FC03C088E790E002C002
:1009700088E590E0B6010CC08A2D867859F0A1FE7A
:1009800002C08BE201C080E2A7FC8DE2B60190E0DC
:100990000E940805891438F4B60180E390E00E94B3
:1009A00008059A94F7CF8A94F301E80DF11D808130
:1009B000B60190E00E9408058110F5CF222009F4CD
:1009C00042CEB60180E290E00E9408052A94F6CF5C
:1009D000F6018681978102C08FEF9FEF2B96E2E1AF
:1009E0000C94BE05FC010590615070400110D8F7D1
:1009F000809590958E0F9F1F0895FC016150704067
:100A000001900110D8F7809590958E0F9F1F089543
:100A10000F931F93CF93DF93FB01238121FD03C02D
:100A20008FEF9FEF2CC022FF16C046815781248193
:100A300035814217530744F4A081B1819D012F5F96
:100A40003F4F318320838C93268137812F5F3F4F27
:100A50003783268314C08B01EC01FB010084F185F0
:100A6000E02D0995892BE1F6D80116968D919C9180
:100A70001797019617969C938E931697CE01DF9148
:100A8000CF911F910F910895FA01AA27283051F1B3
:100A9000203181F1E8946F936E7F6E5F7F4F8F4FAF
:100AA0009F4FAF4FB1E03ED0B4E03CD0670F781F0E
:100AB000891F9A1FA11D680F791F8A1F911DA11DF3
:100AC0006A0F711D811D911DA11D20D009F468942C
:100AD0003F912AE0269F11243019305D3193DEF6D4
:100AE000CF010895462F4770405D4193B3E00FD08A
:100AF000C9F7F6CF462F4F70405D4A3318F0495D75
:100B000031FD4052419302D0A9F7EACFB4E0A69557
:100B10009795879577956795BA95C9F70097610579
:100B2000710508959B01AC010A2E069457954795CF
:100B300037952795BA95C9F7620F731F841F951FC4
:100B4000A01D08952F923F924F925F926F927F92D5
:100B50008F929F92AF92BF92CF92DF92EF92FF92CD
:100B60000F931F93CF93DF93CDB7DEB7CA1BDB0B79
:100B70000FB6F894DEBF0FBECDBF09942A8839881E
:100B800048885F846E847D848C849B84AA84B98425
:100B9000C884DF80EE80FD800C811B81AA81B98131
:100BA000CE0FD11D0FB6F894DEBF0FBECDBFED0145
:060BB0000895F894FFCF48
:100BB6002D2D3E20583A20256420616E6420593A36
:100BC600202564200D0A005B25635D204F435231CA
:100BD600413A202575202C204F435231423A202598
:060BE60075200A0A000060
:00000001FF
