:100000000C942A000C943F000C943F000C943F0089
:100010000C943F000C943F000C943F000C943F0064
:100020000C943F000C943F000C943F000C943F0054
:100030000C943F000C943F000C943F000C943F0044
:100040000C943F000C943F000C943F000C943F0034
:100050000C943F0011241FBECFE5D8E0DEBFCDBF1A
:1000600010E0A0E6B0E0E6ECFCE002C005900D92E6
:10007000A83AB107D9F70E9441000C9461060C948C
:1000800000000E94A20080E895E20E9405030E9401
:10009000B5000E94D5010E9459000E948200811182
:1000A00003C00E944F01F9CF80E690E00E94170341
:1000B000F4CF40E060E082E00E94E50140E061E0D2
:1000C00082E00E94E50140E062E082E00E94E501FA
:1000D00040E063E082E00E94E50141E060E082E010
:1000E0000E945B0241E061E082E00E945B0241E02D
:1000F00062E082E00E945B0241E063E082E00E94F5
:100100005B02089560E082E00E94D1028823C9F07A
:1001100061E082E00E94D102882371F062E082E017
:100120000E94D102882351F063E082E00E94D10254
:10013000811106C083E0089581E0089582E008956A
:100140008FEF089541E064E083E00E94E50141E023
:1001500065E083E00E94E50182EA8FBD8AE18EBD01
:100160008FEF90E098BD87BD089541E060E083E0A7
:100170000E94E50141E061E083E00E94E50141E089
:1001800062E083E00E94E50141E063E083E00E94D9
:10019000E50108958FEB90E09CBD8BBD9ABD89BDB4
:1001A00041E060E083E00E945B0241E062E083E0C6
:1001B0000E945B0240E061E083E00E945B0240E05D
:1001C00063E083E00E945B0208958FEB90E09CBDAA
:1001D0008BBD9ABD89BD41E061E083E00E945B0276
:1001E00041E063E083E00E945B0240E060E083E086
:1001F0000E945B0240E062E083E00E945B0208959F
:100200008FEB90E09CBD8BBD1ABC19BC41E060E057
:1002100083E00E945B0240E061E083E00E945B02B9
:1002200040E062E083E00E945B0240E063E083E044
:100230000E945B0208951CBC1BBC8FEB90E09ABD32
:1002400089BD41E062E083E00E945B0240E063E040
:1002500083E00E945B0240E060E083E00E945B027A
:1002600040E061E083E00E945B0208951CBC1BBC7F
:100270001ABC19BC40E060E083E00E945B0240E0F1
:1002800061E083E00E945B0240E062E083E00E9464
:100290005B0240E063E083E00E945B020895EF921E
:1002A000FF920F931F93CF93DF93CDB7DEB7649781
:1002B0000FB6F894DEBF0FBECDBF80E00E94DA011A
:1002C0007C0181E00E94DA018C011F938F93FF92E1
:1002D000EF9283E790E09F938F93CE0101969F93D7
:1002E0008F930E9477030FB6F894DEBF0FBECDBF89
:1002F000093592E0190758F00E94E50082E490E089
:100300000E942103CE0101960E94170338C00039D4
:10031000114058F40E94CA0086E490E00E94210334
:10032000CE0101960E9417032AC080E9E81681E0F9
:10033000F80658F40E941B018CE490E00E9421030F
:10034000CE0101960E9417031AC099E5E91692E0C2
:10035000F90658F00E94000182E590E00E94210316
:10036000CE0101960E9417030AC00E94360183E560
:1003700090E00E942103CE0101960E9417032FE511
:100380008AEE90E0215080409040E1F700C00000EC
:1003900064960FB6F894DEBF0FBECDBFDF91CF914C
:1003A0001F910F91FF90EF90089580E487B986E840
:1003B00086B908958F70806487B986B1806486B9E4
:1003C0003699FECF84B195B108954130B9F58230A8
:1003D000A1F018F4813031F008958330C9F08430F1
:1003E00011F1089581E090E002C0880F991F6A958D
:1003F000E2F79AB3892B8ABB089581E090E002C0AE
:10040000880F991F6A95E2F797B3892B87BB0895E8
:1004100081E090E002C0880F991F6A95E2F794B3DB
:10042000892B84BB089581E090E002C0880F991F5A
:100430006A95E2F791B3892B81BB089541113AC0C7
:100440008230A9F018F4813031F008958330D9F06A
:10045000843029F1089581E090E002C0880F991F4F
:100460006A95E2F780959AB389238ABB089581E063
:1004700090E002C0880F991F6A95E2F7809597B3C4
:10048000892387BB089581E090E002C0880F991FFF
:100490006A95E2F7809594B3892384BB089581E03F
:1004A00090E002C0880F991F6A95E2F7809591B39A
:1004B000892381BB08954130B9F58230A1F018F449
:1004C000813031F008958330C9F0843011F10895FE
:1004D00081E090E002C0880F991F6A95E2F79BB314
:1004E000892B8BBB089581E090E002C0880F991F93
:1004F0006A95E2F798B3892B88BB089581E090E074
:1005000002C0880F991F6A95E2F795B3892B85BBC6
:10051000089581E090E002C0880F991F6A95E2F784
:1005200092B3892B82BB089541113AC08230A9F061
:1005300018F4813031F008958330D9F0843029F1F6
:10054000089581E090E002C0880F991F6A95E2F754
:1005500080959BB389238BBB089581E090E002C016
:10056000880F991F6A95E2F7809598B3892388BB15
:10057000089581E090E002C0880F991F6A95E2F724
:10058000809595B3892385BB089581E090E002C0F2
:10059000880F991F6A95E2F7809592B3892382BBF1
:1005A0000895823099F018F4813031F02CC08330F6
:1005B000B9F08430F9F027C089B390E002C0959576
:1005C00087956A95E2F7982F91701DC086B390E0E9
:1005D00002C0959587956A95E2F7982F917013C0A0
:1005E00083B390E002C0959587956A95E2F7982FBE
:1005F000917009C080B390E002C0959587956A9587
:10060000E2F7982F9170892F08959C0140E050E007
:1006100060E271EA87E090E00E94550321503109C1
:1006200030BD29B988E18AB986E880BD0895FC010A
:1006300004C05D9BFECF31968CB980818111F9CFCA
:1006400008950F931F93CF93DF93CDB7DEB7EC9749
:100650000FB6F894DEBF0FBECDBF49B55AB52BB566
:100660003CB55F934F933F932F931F928F938AE8EC
:1006700090E09F938F938E010F5F1F4F1F930F93F7
:100680000E947703C8010E9417030FB6F894DEBFDB
:100690000FBECDBFEC960FB6F894DEBF0FBECDBF38
:1006A000DF91CF911F910F910895A1E21A2EAA1BFD
:1006B000BB1BFD010DC0AA1FBB1FEE1FFF1FA21712
:1006C000B307E407F50720F0A21BB30BE40BF50B0F
:1006D000661F771F881F991F1A9469F76095709598
:1006E000809590959B01AC01BD01CF010895AEE0CE
:1006F000B0E0EDE7F3E00C9438060D891E8986E042
:100700008C831A8309838FEF9FE79E838D83AE01CD
:10071000475E5F4F6F89788DCE0101960E949903E5
:10072000EF81F885E00FF11F10822E96E4E00C9423
:100730005406ABE0B0E0EFE9F3E00C942A066C015C
:100740007B018A01FC0117821682838181FFCCC163
:10075000CE0101963C01F6019381F70193FD85914D
:1007600093FF81917F01882309F4BAC1853239F45E
:1007700093FD859193FF81917F01853229F4B60124
:1007800090E00E949005E7CF912C212C312CFFE1C5
:10079000F315D8F08B3279F038F4803279F0833267
:1007A000A1F4232D20611DC08D3261F0803369F4E6
:1007B000232D216016C0832D8260382EE32DE46046
:1007C0003E2E2AC0F32DF8601DC037FC2DC020ED51
:1007D000280F2A3040F08E32B9F436FC81C1232D27
:1007E0002064322E19C036FE06C08AE0989E200D85
:1007F0001124922E11C0EAE02E9E200D1124222EEB
:10080000F32DF0623F2E08C08C3621F4832D8068D2
:10081000382E02C0883641F4F70193FD859193FF8D
:1008200081917F018111B3CF982F9F7D9554933093
:1008300028F40C5F1F4F9FE399830DC0833631F07E
:10084000833771F0833509F059C021C0F8018081E8
:1008500089830E5F1F4F88248394912C530113C00A
:100860002801F2E04F0E511CF801A080B18036FE45
:1008700003C0692D70E002C06FEF7FEFC5010E94D9
:1008800085054C018201F32DFF773F2E16C028010C
:1008900022E0420E511CF801A080B18036FE03C058
:1008A000692D70E002C06FEF7FEFC5010E947A05ED
:1008B0004C01F32DF0683F2E820133FC1BC0822DCA
:1008C00090E088169906B0F4B60180E290E00E94AC
:1008D00090052A94F4CFF50137FC859137FE81917C
:1008E0005F01B60190E00E94900521102A9421E05A
:1008F000821A91088114910471F7E8C0843611F0CE
:10090000893641F5F80137FE07C060817181828127
:1009100093810C5F1F4F08C060817181072E000C0E
:10092000880B990B0E5F1F4FF32DFF763F2E97FF1D
:1009300009C090958095709561957F4F8F4F9F4F1F
:10094000F0683F2E2AE030E0A3010E94CC05882EFB
:10095000861845C0853731F4232D2F7EB22E2AE02C
:1009600030E025C0932D997FB92E8F36C1F018F451
:10097000883579F0B5C0803719F0883721F0B0C0DC
:10098000E92FE061BE2EB4FE0DC0FB2DF460BF2E3A
:1009900009C034FE0AC0292F2660B22E06C028E006
:1009A00030E005C020E130E002C020E132E0F80193
:1009B000B7FE07C060817181828193810C5F1F4FF8
:1009C00006C06081718180E090E00E5F1F4FA3013F
:1009D0000E94CC05882E8618FB2DFF773F2E36FE11
:1009E0000DC0232D2E7FA22E891458F434FE0BC087
:1009F00032FC09C0832D8E7EA82E05C0B82CA32CF6
:100A000003C0B82C01C0B92CA4FE0FC0FE01E80D34
:100A1000F11D8081803321F49A2D997EA92E09C081
:100A2000A2FE06C0B394B39404C08A2D867809F060
:100A3000B394A3FC11C0A0FE06C0B21488F4280C25
:100A4000922C9B180EC0B21460F4B60180E290E0C4
:100A50000E949005B394F7CFB21418F42B1802C07B
:100A6000982C212CA4FE10C0B60180E390E00E94D7
:100A70009005A2FE17C0A1FC03C088E790E002C069
:100A800088E590E0B6010CC08A2D867859F0A1FE69
:100A900002C08BE201C080E2A7FC8DE2B60190E0CB
:100AA0000E949005891438F4B60180E390E00E941A
:100AB00090059A94F7CF8A94F301E80DF11D808197
:100AC000B60190E00E9490058110F5CF222009F434
:100AD00042CEB60180E290E00E9490052A94F6CFC3
:100AE000F6018681978102C08FEF9FEF2B96E2E19E
:100AF0000C944606FC010590615070400110D8F737
:100B0000809590958E0F9F1F0895FC016150704055
:100B100001900110D8F7809590958E0F9F1F089532
:100B20000F931F93CF93DF93FB01238121FD03C01C
:100B30008FEF9FEF2CC022FF16C046815781248182
:100B400035814217530744F4A081B1819D012F5F85
:100B50003F4F318320838C93268137812F5F3F4F16
:100B60003783268314C08B01EC01FB010084F185DF
:100B7000E02D0995892BE1F6D80116968D919C916F
:100B80001797019617969C938E931697CE01DF9137
:100B9000CF911F910F910895FA01AA27283051F1A2
:100BA000203181F1E8946F936E7F6E5F7F4F8F4F9E
:100BB0009F4FAF4FB1E03ED0B4E03CD0670F781FFD
:100BC000891F9A1FA11D680F791F8A1F911DA11DE2
:100BD0006A0F711D811D911DA11D20D009F468941B
:100BE0003F912AE0269F11243019305D3193DEF6C3
:100BF000CF010895462F4770405D4193B3E00FD079
:100C0000C9F7F6CF462F4F70405D4A3318F0495D63
:100C100031FD4052419302D0A9F7EACFB4E0A69546
:100C20009795879577956795BA95C9F70097610568
:100C3000710508959B01AC010A2E069457954795BE
:100C400037952795BA95C9F7620F731F841F951FB3
:100C5000A01D08952F923F924F925F926F927F92C4
:100C60008F929F92AF92BF92CF92DF92EF92FF92BC
:100C70000F931F93CF93DF93CDB7DEB7CA1BDB0B68
:100C80000FB6F894DEBF0FBECDBF09942A8839880D
:100C900048885F846E847D848C849B84AA84B98414
:100CA000C884DF80EE80FD800C811B81AA81B98120
:100CB000CE0FD11D0FB6F894DEBF0FBECDBFED0134
:060CC0000895F894FFCF37
:100CC6004E6F204D6F64652053656C656374656473
:100CD600210A002D2D3E20583A20256420616E649D
:100CE60020593A202564200D0A005B25635D204FBC
:100CF600435231413A202575202C204F4352314230
:080D06003A202575200A0A00BD
:00000001FF
